:100000000C9443020C946B020C946B020C946B02E4
:100010000C946B020C946B020C946B020C946B02AC
:100020000C946B020C946B020C946B020C946B029C
:100030000C946B020C946B020C946B020C946B028C
:100040000C94690C0C946B020C94680B0C94420B8E
:100050000C946B020C946B020C946B020C946B026C
:100060000C9431030C946B02DB13E113E913EF13CF
:10007000F513FE1308140E1416141E142614291456
:1000800038145D14631469146F1475147B1485148B
:100090008B1493149B14A514A814B9142020537A1C
:1000A0006570204E6F7262657274202000202020DF
:1000B000535720617574686F722020202000206DD6
:1000C000566F6C7420200056696E3A002020005252
:1000D0006561644572726F723A004B49202020209E
:1000E00020202020202020202020004245202020E9
:1000F00020202020202020202020200020205365A8
:100100007269616C206465627567202000555A45EC
:100110004D2056656E74693A20004B455A49204D72
:100120006F746F723A2000202020202B20766167A8
:1001300079202D20202020004265616C6C2E206DDE
:10014000656E746573202020004B492020202020FC
:100150002020202020202020200042452020202078
:1001600020202020202020202020005465726D6F48
:10017000737A7461742020202020200020432020E6
:100180002020202020202020202020004869737A71
:10019000746572657A697320202020200020432036
:1001A00020202020202020202020200056697A2096
:1001B000686F6D657273656B6C65742000207320C9
:1001C000494E4143544956452020004C65766567A9
:1001D0006F206B65736C656C746574002020202043
:1001E000202020200048617474657276696C616714
:1001F000697461732000207320202020202020209B
:100200002020004D6F746F72207465737A742069BA
:10021000646F200020706572632020202020200061
:1002200054757A7461727461732053544F50202056
:100230000020732020202020202020202000547522
:100240007A746172746173205354415254200020B7
:100250007320202020202020202020004675746557
:10026000732053544F502069646F20200020732066
:100270002020202020202020004675746573205304
:10028000544152542069646F2000544152544153E8
:100290002020202020200046555445532020202097
:1002A00020202000005EBCE2613FDD83C29C7E20F6
:1002B000A3FD1F419DC3217FFCA2401E5F01E3BD42
:1002C0003E6082DC237D9FC1421CFEA0E1BF5D0336
:1002D00080DE3C62BEE0025CDF81633D7C22C09E2A
:1002E0001D43A1FF4618FAA427799BC584DA386616
:1002F000E5BB5907DB856739BAE406581947A5FB02
:100300007826C49A653BD987045AB8E6A7F91B45F5
:10031000C6987A24F8A6441A99C7257B3A6486D8E9
:100320005B05E7B98CD2306EEDB3510F4E10F2ACD5
:100330002F7193CD114FADF3702ECC92D38D6F31C1
:10034000B2EC0E50AFF1134DCE90722C6D33D18FB5
:100350000C52B0EE326C8ED0530DEFB1F0AE4C12A9
:1003600091CF2D73CA947628ABF517490856B4EA95
:100370006937D58B5709EBB536688AD495CB297781
:10038000F4AA4816E9B7550B88D6346A2B7597C975
:100390004A14F6A8742AC896154BA9F7B6E80A5469
:1003A000D7896B3550726F6772616D20696E6475A5
:1003B0006C2E2E00202020205445535A54204F4BA1
:1003C00020202020002020204D4F544F5220544503
:1003D000535A54202000205665723A2031362E3070
:1003E000312E3033202000204B617A616E207665FB
:1003F0007A65726C6F2000496E7075742070696E3A
:10040000207374617465203A2000726571486561DB
:10041000742028312D4675746573202F20302D549B
:100420006172746173203A200000000000240027EC
:10043000002A0000000000250028002B000000001A
:100440000800020100000304070000000000000093
:100450000000000000230026002900040404040416
:100460000404040202020202020303030303030161
:100470000204081020408001020408102001020438
:10048000081020005D1511241FBECFEFD8E0DEBF9D
:10049000CDBF11E0A0E0B1E0EAEAF1E302C00590CF
:1004A0000D92AE3CB107D9F723E0AEECB1E001C04C
:1004B0001D92AE35B207E1F712E0C3E4D2E004C00A
:1004C0002197FE010E94AA18C234D107C9F70E94E1
:1004D000960F0C94D3180C94000085ED8093BC000B
:1004E0008091BC0084FDFCCF1092170208954091CA
:1004F000F001262F30E0240F311D21323105DCF4CC
:10050000209117022430C9F4FC0180E090E08617A6
:1005100058F43091F0012191DC01A253BE4FA30F9A
:10052000B11D2C930196F3CF8091F001680F609379
:10053000F00180E0089581E0089582E00895089533
:1005400081E090E030911B0220911A02321710F4E2
:1005500080E090E0919581959109089580911B022A
:1005600090911A02891730F48F5F80931B0280E00C
:1005700090E008958FEF9FEF089580911A0290E028
:1005800020911B02821B91090895CF92DF92EF9276
:10059000FF920F931F93CF93DF937C01262F972F0A
:1005A0008A0180915D02882391F0C62FD72F6E01BA
:1005B000C40ED51ECC15DD0571F06991D701ED9102
:1005C000FC910190F081E02DC7010995F3CF642FD4
:1005D000822F0E947702C801DF91CF911F910F9166
:1005E000FF90EF90DF90CF900895CF93DF931F920D
:1005F000CDB7DEB7698320915D022223D1F020912F
:100600001802203240F021E030E0FC0133832283E5
:1006100080E090E015C080911902E82FF0E0E25AE6
:10062000FD4F998190838F5F809319028093180208
:1006300005C061E0CE0101960E94770281E090E062
:100640000F90DF91CF910895089580E090E0089594
:10065000089541E00E94310D81E090E008950C94EE
:100660000B161F920F920FB60F9211242F933F93E8
:100670004F935F936F937F938F939F93AF93BF93AA
:10068000EF93FF938091B900887F803609F49CC076
:1006900068F5883209F45BC090F4803109F454C0E5
:1006A00038F4882309F4F6C0883009F44DC0F6C048
:1006B000883109F44CC0803209F45DC0EFC0803449
:1006C00009F468C048F4803309F455C0883309F050
:1006D000E5C080935C02D8C0803509F44FC08835EE
:1006E00009F45DC0883409F0D9C0D6C0883909F44E
:1006F000C7C0A8F4883709F467C038F4883609F40D
:1007000063C0803709F460C0C9C0883809F4B8C034
:10071000803909F45FC0803809F0C0C05BC0803BFD
:1007200009F486C038F4803A09F466C0883A09F4BE
:100730007FC0B4C0803C09F4A7C0883C09F4A4C0C1
:10074000883B09F48AC0AAC08091390210C09091F8
:100750005B0280915A02981770F5E0915B0281E08C
:100760008E0F80935B02F0E0E65CFD4F808180930A
:10077000BB0085EC86C080935C028EC0E0915B027A
:1007800081E08E0F80935B028091BB00F0E0E65C1D
:10079000FD4F808390915B0280915A026EC0E09180
:1007A0005B0281E08E0F80935B028091BB00F0E0E2
:1007B000E65CFD4F80838091160281116DC081E05F
:1007C0008093150284EA61C083E08093170210923F
:1007D0001402CFCF80911402803208F051C0E09112
:1007E000140281E08E0F809314028091BB00F0E030
:1007F000EC50FE4F8083BDCF85EC8093BC001092FF
:10080000170280911402803230F4E0911402F0E07B
:10081000EC50FE4F10826091140270E0E091F20102
:10082000F091F30184EF91E009951092140236C023
:1008300084E0809317021092F1011092F001E09190
:10084000EE01F091EF0109958091F001811105C051
:1008500081E08093F0011092CE01E091F10181E0FE
:100860008E0F8093F101F0E0E253FE4F8081809380
:10087000BB009091F1018091F001981708F479CFB5
:1008800085E88093BC000AC085EC8093BC00109280
:10089000170204C010925C020E946D02FF91EF915A
:1008A000BF91AF919F918F917F916F915F914F9188
:1008B0003F912F910F900FBE0F901F901895DC0164
:1008C000E0E0615038F08D91E827F0E0EC55FD4F05
:1008D000E491F7CF8E2F0895FC0190810180F28181
:1008E000E02DF8948181892B81832281892F809545
:1008F00028232283A7E0B0E01197F1F7218182231A
:100900008183A3E2B0E01197F1F780817894EFEC56
:10091000F0E03197F1F7982381E009F480E0089541
:10092000FC0190810180F281E02D892F809560FF8C
:1009300012C0F8942281822382838181892B818352
:10094000A3E2B0E01197F1F78281982B928378941B
:1009500087ED90E011C0F894228182238283818107
:10096000892B8183AFEFB0E01197F1F78281982B4B
:10097000928378948FE090E00197F1F70895CF92F9
:10098000DF92EF92FF920F931F93CF93DF931F920B
:10099000CDB7DEB76C01E62E08E010E0FF24F3943B
:1009A00061E08F2D8E2109F460E0C60149830E9429
:1009B0009004FF0C0150110949810115110581F7BF
:1009C000411115C0F894D6011196ED91FC91129742
:1009D00091818C918095892381831196ED91FC9171
:1009E000129792818C9180958923828378940F90BD
:1009F000DF91CF911F910F91FF90EF90DF90CF90FB
:100A00000895CF92DF92EF92FF920F931F93CF93AF
:100A1000DF931F92CDB7DEB78C01F62E40E065E57F
:100A200079830E94BF04CF2C7981D72E760188E08C
:100A3000E80EF11CF60161916F0140E0C8010E94CF
:100A4000BF04CE14DF04B1F70F90DF91CF911F9157
:100A50000F91FF90EF90DF90CF900895FC0190816F
:100A60000180F281E02DF8948181292F2095822345
:100A7000818378948DE743E050E0815021F1DA01E1
:100A80001197F1F730813923C1F3F89482818223E1
:100A900082838181892B81837894ABE7B7E01197BA
:100AA000F1F7F894818128232183A3E1B1E0119724
:100AB000F1F78081982381E009F080E07894E3E603
:100AC000F6E03197F1F708950C9403166091080150
:100AD00080E090E00E942F036091070181E090E0A8
:100AE0000E942F0360910A0182E090E00E942F0390
:100AF0006091090183E090E00E942F03609106015C
:100B000084E090E00E942F036091040185E090E072
:100B10000E942F036091030186E090E00E942F0362
:100B20006091020187E090E00E942F036091010133
:100B300088E090E00E942F0360E08EE00E94B10DFB
:100B40006CE471E080E493E00E94400B64E670E0A6
:100B500080E090E00E942F0C0E94E10D81E08093E4
:100B60000D01089560E080E00E94B10D80910D01BB
:100B7000813009F05EC060E082E00E94B10D80919A
:100B80001C02882319F067E972E002C06AE872E08B
:100B900080E493E00E94DC0961E080E00E94B10DF6
:100BA0002FB7F89460911D0270911E0280911F0270
:100BB000909120022FBF20E63AEE40E050E00E94E4
:100BC0006918BA01A9012AE080E493E00E94150A9D
:100BD0006FE471E080E493E00E94400B61E08AE002
:100BE0000E94B10D40912302509124026091250290
:100BF0007091260221E080E493E00E945E0A63E5A2
:100C000071E080E493E00E94400B80910B0160E072
:100C1000811106C08EE00E94B10D66E571E005C04D
:100C20008EE00E94B10D6BEB71E080E493E00E94D6
:100C3000400B80910D01823021F560E080E00E9440
:100C4000B10D69E772E080E493E00E94DC0961E0A5
:100C500080E00E94B10D69E571E080E493E00E94BC
:100C6000400B4091080150E060E070E02AE080E431
:100C700093E00E94150A6DE672E080E493E00E9422
:100C8000DC0980910D01833021F560E080E00E9455
:100C9000B10D6CE572E080E493E00E94DC0961E054
:100CA00080E00E94B10D69E571E080E493E00E946C
:100CB000400B4091070150E060E070E02AE080E4E2
:100CC00093E00E94150A6FE472E080E493E00E94D2
:100CD000DC0980910D01843021F560E080E00E9404
:100CE000B10D6EE372E080E493E00E94DC0961E004
:100CF00080E00E94B10D69E571E080E493E00E941C
:100D0000400B40910A0150E060E070E02AE080E48E
:100D100093E00E94150A61E372E080E493E00E9490
:100D2000DC0980910D01853021F560E080E00E94B2
:100D3000B10D60E272E080E493E00E94DC0961E0C2
:100D400080E00E94B10D69E571E080E493E00E94CB
:100D5000400B4091090150E060E070E02AE080E43F
:100D600093E00E94150A64E172E080E493E00E943F
:100D7000DC0980910D01863021F560E080E00E9461
:100D8000B10D63E072E080E493E00E94DC0961E071
:100D900080E00E94B10D69E571E080E493E00E947B
:100DA000400B4091060150E060E070E02AE080E4F2
:100DB00093E00E94150A66EF71E080E493E00E94E0
:100DC000DC0980910D01873091F560E080E00E94A0
:100DD000B10D65EE71E080E493E00E94DC0961E012
:100DE00080E00E94B10D6DE571E080E493E00E9427
:100DF000400B4091050150E060E070E080E493E03A
:100E00000E94520D6CED71E080E493E00E94DC09D9
:100E100080910501882321F088E080934B0302C074
:100E200010924B0360E080E493E00E94B30C809149
:100E30000D01883021F560E080E00E94B10D6BEC7F
:100E400071E080E493E00E94DC0961E080E00E94B0
:100E5000B10D69E571E080E493E00E94400B4091A0
:100E6000040150E060E070E02AE080E493E00E943A
:100E7000150A6DEB71E080E493E00E94DC0980913B
:100E80000D018930F1F460E080E00E94B10D6CEA60
:100E900071E080E493E00E94DC0961E080E00E9460
:100EA000B10D4091030150E060E070E02AE080E481
:100EB00093E00E94150A6DE971E080E493E00E94DE
:100EC000DC0980910D018A30F1F460E080E00E943D
:100ED000B10D6CE871E080E493E00E94DC0961E010
:100EE00080E00E94B10D4091020150E060E070E0AE
:100EF0002AE080E493E00E94150A6CE771E080E448
:100F000093E00E94DC0980910D018B30D9F460E000
:100F100080E00E94B10D6BE671E080E493E00E94F6
:100F2000DC0961E080E00E94B10D8091010188231D
:100F300019F06AE571E002C069E471E080E493E0D1
:100F40000E94DC0980910D018C30A1F460E080E00A
:100F50000E94B10D68E371E080E493E00E94DC0937
:100F600061E080E00E94B10D67E271E080E493E00F
:100F70000E94DC0980910D018D3071F560E080E008
:100F80000E94B10D6AE171E080E493E00E94DC0907
:100F900080910B01882319F065E671E002C06AE6D2
:100FA00071E080E493E00E94400B61E080E00E94E9
:100FB000B10D6DE071E080E493E00E94DC09809166
:100FC0000001882319F065E671E002C06AE671E06D
:100FD00080E493E00E94400B80910D018E30D9F4A3
:100FE00060E080E00E94B10D6CEF70E080E493E07F
:100FF0000E94DC0961E080E00E94B10D809127022F
:10100000882319F06BEE70E002C06AED70E080E4B6
:1010100093E00E94DC0980910D018F3009F058C0E7
:1010200060E080E00E94B10D6FEC70E080E493E03E
:101030000E94DC094091210250912202052E000CF1
:10104000660B770B80E493E00E94520D6CEC70E02D
:1010500080E493E00E94DC0961E080E00E94B10D31
:1010600067EC70E080E493E00E94DC098EE48093FA
:101070007C0062E070E080E090E00E942F0C8091A4
:101080007A00806480937A0080917A0086FDFCCF9C
:10109000809178002091790030E0322F2227A90139
:1010A000330F660B770B9A01AB01282B60E070E3DE
:1010B00081E190E00E948B18BA01A90180E493E0DD
:1010C0000E94520D6EEB70E080E493E00E94DC0918
:1010D00080910D018031A1F460E080E00E94B10DAB
:1010E0006DEA70E080E493E00E94DC0961E080E05A
:1010F0000E94B10D6CE970E080E493E00C94DC098F
:101100000895CF92DF92EF92FF920F931F93CF93A8
:10111000DF936C017A018B01C0E0D0E0CE15DF05D2
:1011200089F0D8016D918D01D601ED91FC9101906E
:10113000F081E02DC6010995892B11F47E0102C0D2
:101140002196ECCFC701DF91CF911F910F91FF90B6
:10115000EF90DF90CF900895FC01538D448D252FA3
:1011600030E0842F90E0821B930B541710F0CF9641
:10117000089501970895FC01918D828D981761F073
:10118000828DDF01A80FB11D5D968C91928D9F5FBE
:101190009F73928F90E008958FEF9FEF0895FC0169
:1011A000918D828D981731F0828DE80FF11D858D1C
:1011B00090E008958FEF9FEF0895FC01918D228DAF
:1011C000892F90E0805C9F4F821B91098F73992734
:1011D000089584E892E00E94DD0821E0892B09F45B
:1011E00020E0822F0895FC01848DDF01A80FB11D3E
:1011F000A35ABF4F2C91848D90E001968F7399274D
:10120000848FA689B7892C93A089B1898C91806439
:101210008C93938D848D981306C00288F389E02DFA
:1012200080818F7D80830895EF92FF920F931F93AB
:10123000CF93DF93EC0181E0888F9B8D8C8D981389
:1012400005C0E889F989808185FD24C0F62E0B8DC3
:1012500010E00F5F1F4F0F731127E02E8C8DE812E7
:101260000CC00FB607FCFACFE889F989808185FFA9
:10127000F5CFCE010E94F308F1CF8B8DFE01E80F70
:10128000F11DE35AFF4FF0820B8FEA89FB898081C1
:10129000806207C0EE89FF896083E889F9898081CF
:1012A0008064808381E090E0DF91CF911F910F9166
:1012B000FF90EF900895CF93DF93EC01888D882302
:1012C000C9F0EA89FB89808185FD05C0A889B989B3
:1012D0008C9186FD0FC00FB607FCF5CF808185FF8E
:1012E000F2CFA889B9898C9185FFEDCFCE010E94FC
:1012F000F308E7CFDF91CF91089580E090E0892B4C
:1013000029F00E94E90881110C94000008958330AF
:1013100081F028F4813099F08230A1F0089587306F
:10132000A9F08830B9F08430D1F4809180008F7DAD
:1013300003C0809180008F7780938000089584B5EA
:101340008F7702C084B58F7D84BD08958091B000F1
:101350008F7703C08091B0008F7D8093B000089597
:101360003FB7F8948091800290918102A09182020F
:10137000B091830226B5A89B05C02F3F19F00196B6
:10138000A11DB11D3FBFBA2FA92F982F8827820F0B
:10139000911DA11DB11DBC01CD0142E0660F771F5B
:1013A000881F991F4A95D1F70895DC01ED91FC91B2
:1013B0000190F081E02D0994EF92FF920F931F931B
:1013C000CF93DF938C017B01C0E0D0E0F701EC0FFD
:1013D000FD1F6491662361F0D801ED91FC910190AD
:1013E000F081E02DC8010995892B11F02196EECFEF
:1013F000CE01DF91CF911F910F91FF90EF90089553
:101400006115710579F0FB0101900020E9F7319732
:10141000AF01461B570BDC01ED91FC910280F3817B
:10142000E02D099480E090E008954F925F926F92D2
:101430007F92EF92FF920F931F93CF93DF93CDB7DD
:10144000DEB7A1970FB6F894DEBF0FBECDBF7C010B
:10145000FA01CB0119A2223008F42AE08E010F5DB7
:101460001F4F422E512C612C712CBF01A301920100
:101470000E946918F901CA01015011096A3014F477
:10148000605D01C0695CD8016C93232B242B252B54
:1014900061F7B801C7010E94000AA1960FB6F8943F
:1014A000DEBF0FBECDBFDF91CF911F910F91FF9097
:1014B000EF907F906F905F904F9008954F925F9262
:1014C0006F927F928F929F92AF92BF92CF92DF9254
:1014D000EF92FF92CF93DF93EC016A017B01B22E72
:1014E0009A01AB01C701B6010E945018882319F078
:1014F00061EC71E027C026013701E89477F82FEFFF
:101500003FEF4FE75FE7C301B2010E94501881111E
:101510000DC02FEF3FEF4FE75FE7C301B2010E941D
:10152000861618161CF465EC71E00CC02FEF3FEF27
:101530004FE75FE4C701B6010E94DE1718169CF45E
:1015400069EC71E0CE01DF91CF91FF90EF90DF90D9
:10155000CF90BF90AF909F908F907F906F905F9053
:101560004F900C94000A2FEF3FEF4FE75FECC7015D
:10157000B6010E94861687FDE3CF20E030E0A90186
:10158000C701B6010E94861687FF0AC06DE2CE0130
:101590000E94D5094C01F7FAF094F7F8F09402C0D4
:1015A000812C912CA12C60E070E080E09FE3AB14D3
:1015B00041F020E030E040E251E40E948B16A39419
:1015C000F6CF9B01AC01C701B6010E941A162B0190
:1015D0003C010E94FD166B017C010E942C179B01AF
:1015E000AC01C301B2010E9419162B013C012AE093
:1015F000B701A601CE010E94150A7C01E80CF91C76
:10160000BB2031F06EE2CE010E94D509E80EF91E32
:10161000DB2CDD2029F120E030E040E251E4C30181
:10162000B2010E94E3172B013C010E94FD164B0101
:10163000A12CB12C2AE0B501A401CE010E94150A0B
:10164000E80EF91EC501B4010E942C179B01AC01E4
:10165000C301B2010E9419162B013C01DA94D9CFC3
:10166000C701DF91CF91FF90EF90DF90CF90BF90B7
:10167000AF909F908F907F906F905F904F90089564
:101680000C94000A1F920F920FB60F9211242F9301
:101690003F934F935F936F937F938F939F93AF93FA
:1016A000BF93EF93FF9384E892E00E94F308FF91C9
:1016B000EF91BF91AF919F918F917F916F915F91CA
:1016C0004F913F912F910F900FBE0F901F90189543
:1016D0001F920F920FB60F9211242F938F939F9307
:1016E000EF93FF93E0919402F09195028081E09155
:1016F0009A02F0919B0282FD12C0908180919D021E
:101700008F5F8F7320919E02821751F0E0919D02AE
:10171000F0E0EC57FD4F958F80939D0201C08081D2
:10172000FF91EF919F918F912F910F900FBE0F908E
:101730001F901895CF93DF93282F30E0F901E35CD9
:10174000FB4F8491F901E159FB4FD491F901E55A1E
:10175000FB4FC491CC2391F081110E948709EC2F9B
:10176000F0E0EE0FFF1FEF5AFB4FA591B491EC9103
:10177000ED2381E090E021F480E002C080E090E081
:10178000DF91CF9108951F93CF93DF93282F30E0FF
:10179000F901E35CFB4F8491F901E159FB4FD491CE
:1017A000F901E55AFB4FC491CC23C9F0162F8111E2
:1017B0000E948709EC2FF0E0EE0FFF1FED5CFB4F5E
:1017C000A591B4918FB7F894111105C09C91ED2F9C
:1017D000E095E92302C0EC91ED2BEC938FBFDF91F4
:1017E000CF911F910895CF93DF9390E0FC01E159D1
:1017F000FB4F2491FC01E55AFB4F8491882361F152
:1018000090E0880F991FFC01E75DFB4FC591D491D3
:10181000FC01ED5CFB4FA591B491611109C09FB72C
:10182000F8948881209582238883EC912E230BC025
:10183000623061F49FB7F8943881822F80958323BA
:101840008883EC912E2B2C939FBF06C08FB7F89402
:10185000E8812E2B28838FBFDF91CF9108958F923F
:101860009F92AF92BF92CF92DF92EF92FF926B0165
:101870007C010E94B0094B015C01C114D104E10458
:10188000F104F1F00E94B009DC01CB01881999093B
:10189000AA09BB09883E9340A105B10570F321E078
:1018A000C21AD108E108F10888EE880E83E0981E7C
:1018B000A11CB11CC114D104E104F10419F7DDCF5E
:1018C000FF90EF90DF90CF90BF90AF909F908F9060
:1018D00008951F920F920FB60F9211242F933F93EA
:1018E0008F939F93AF93BF9380911D0290911E029F
:1018F000A0911F02B091200230917F0223E0230FBC
:101900002D3720F40196A11DB11D05C026E8230F37
:101910000296A11DB11D20937F0280931D0290931A
:101920001E02A0931F02B09320028091800290912A
:101930008102A0918202B09183020196A11DB11D86
:101940008093800290938102A0938202B0938302DD
:10195000BF91AF919F918F913F912F910F900FBEAB
:101960000F901F901895CF93FC01C48121E0209324
:101970005D02C0937E0210921902109218028385B4
:10198000682B81E293E00E94F50280911802813277
:1019900008F046C0909117029111FCCF92E090930D
:1019A000170291E0909316029FEF90935C021092C1
:1019B0005B0280935A02AEE5B2E02AE332E0F9011D
:1019C0009E2F921B981718F49D919193F9CF109226
:1019D000390280913902CC0FC82BC0933902809113
:1019E0001502813061F410921502809139028093C2
:1019F000BB008091BC0083FDF8CF85EC01C085EE73
:101A00008093BC00809117028230E1F380915C02E8
:101A10008F3F31F080915C02803211F080915C0246
:101A2000109219021092180210925D02CF9108953F
:101A30000F931F93CF938C01C62F0E94B30C6C2F72
:101A40006460C8010E94B30C6C2F6B7FC8010E94B8
:101A5000B30C83EC90E00197F1F7CF911F910F91B8
:101A60000895FF920F931F93CF93DF931F92CDB7EB
:101A7000DEB78C01F62E962F907F692F642BC8015C
:101A800049830E94180D80E1F89EB001112449811C
:101A9000642BC8010F90DF91CF911F910F91FF90A0
:101AA0000C94180DCF92DF92EF92FF920F931F9339
:101AB000CF93DF9377FF1DC06A017B01EC016DE2DC
:101AC0000E94D5098C0144275527BA014C195D099C
:101AD0006E097F092AE0CE010E94150A800F911F2E
:101AE000DF91CF911F910F91FF90EF90DF90CF90FA
:101AF00008952AE0DF91CF911F910F91FF90EF9011
:101B0000DF90CF900C94150ACF93DF93AC01990F1F
:101B1000660B770B84E892E00E94520DEC016FE6B1
:101B200071E084E892E00E94000A8C0F9D1FDF9113
:101B3000CF910895CF93DF93482F50E060E070E09D
:101B40002AE084E892E00E94150AEC016FE671E059
:101B500084E892E00E94000A8C0F9D1FDF91CF91D4
:101B60000895CF93DF93CDB7DEB728970FB6F894DB
:101B7000DEBF0FBECDBF28E0E4E1F1E0DE0111964B
:101B800001900D922A95E1F720914803261710F451
:101B90006FEF620FFE013196E60FF11DE60FF11DAA
:101BA0009081682F690F606840E080E493E0289698
:101BB0000FB6F894DEBF0FBECDBFDF91CF910C946E
:101BC000310D40E061E080E493E00E94310D8BE351
:101BD0009FE10197F1F70895AF92BF92CF92DF9204
:101BE000EF92FF920F931F93CF93DF931F92CDB786
:101BF000DEB75C01D62EE72EFC018585811105C07C
:101C0000C5010E942E05811106C0F50113861586B7
:101C1000148680E065C040E060EFC5010E94BF040B
:101C200001E0F12CC12C11E0C5010E946C04682F69
:101C3000C50169830E946C046981613019F48130A7
:101C4000B9F433C04F2D50E068131BC0F5018385F4
:101C5000181730F4E40FF51F8381802349F402C084
:101C6000181731F060E0193058F4F501148708C0F6
:101C7000F501EF0DF11D8381802B838361E009C0A5
:101C8000C12EF501E40FF51F9381802F80958923E4
:101C90008383C5010E9490041F5F000F11F4F39429
:101CA00001E0F7E0FF1508F0BFCF113408F4ADCF25
:101CB000F501C386C11002C081E08587F5018381EB
:101CC000882309F4A2CFD5011396ED2DFE2D9501A1
:101CD000255F3F4F8D918193A217B307D9F781E01C
:101CE0000F90DF91CF911F910F91FF90EF90DF90B8
:101CF000CF90BF90AF900895AF92BF92CF92DF92F6
:101D0000EF92FF920F931F93CF93DF93EC018B0120
:101D100080913203909133030E942E058823A1F114
:101D2000BE0180913203909133030E94010540E08F
:101D30006EEB80913203909133030E94BF04E8015F
:101D4000680189E0C80ED11CA0903203B090330323
:101D500088E0E82EF12C01E010E0C5010E946C043F
:101D60008111102B000F81E0E81AF108B1F71993E7
:101D7000CC15DD0549F780913203909133030E9421
:101D80002E0591E0813009F090E0892FDF91CF910D
:101D90001F910F91FF90EF90DF90CF90BF90AF9089
:101DA0000895CF93DF93CDB7DEB729970FB6F89498
:101DB000DEBF0FBECDBFFC012081203119F1BE0175
:101DC0006F5F7F4F0E947C0E882379F068E0CE0120
:101DD00001960E945F049985891307C008C080346A
:101DE00058F08F3569F08F3769F080E00CC08D8135
:101DF0008F33A9F78AE007C08F31B9F789E003C0B4
:101E00008BE001C08CE029960FB6F894DEBF0FBEC0
:101E1000CDBFDF91CF910895CF93DF93CDB7DEB7DC
:101E200061970FB6F894DEBF0FBECDBFE0913203CD
:101E3000F0913303138615861486DF011B96CF01BC
:101E400003961E92A817B907E1F7BE01665F7F4FA0
:101E5000CF010E94EC0D882341F067E0CE010A9685
:101E60000E945F049989891729F060E070E08EEF85
:101E700092EC53C0BE016F5F7F4FCE010A960E9465
:101E80007C0E882309F446C068E0CE0101960E94CA
:101E90005F04998589133EC0698188E0689FB0011D
:101EA00011248A81282F30E0322F2227330F330F5D
:101EB000330F262B372B8A85803151F5688570E0EA
:101EC0008F81AB01481B5109CA019695982F88272D
:101ED000979587950E94551860517109207F53E0AE
:101EE000220F331F5A95E1F7620F731F613854EECA
:101EF00075070CF4BACF072E000C880B990B0E94C3
:101F00002E1720E030E040E05CE30E94E31705C0BC
:101F1000B901ECCF60E874EEE9CF61960FB6F894A2
:101F2000DEBF0FBECDBFDF91CF910895CF93DF937A
:101F3000CDB7DEB761970FB6F894DEBF0FBECDBF49
:101F4000789484B5826084BD84B5816084BD85B594
:101F5000826085BD85B5816085BD80916E008160A0
:101F600080936E0010928100809181008260809346
:101F70008100809181008160809381008091800048
:101F80008160809380008091B10084608093B10073
:101F90008091B00081608093B00080917A0084606D
:101FA00080937A0080917A00826080937A00809199
:101FB0007A00816080937A0080917A0080688093B3
:101FC0007A001092C100E0919402F091950282E0B3
:101FD0008083E0919002F09191021082E091920250
:101FE000F09193028FEC808310929C02E091980212
:101FF000F091990286E08083E0919602F091970239
:10200000808180618083E0919602F09197028081C7
:1020100088608083E0919602F091970280818068C9
:102020008083E0919602F091970280818F7D80837A
:10203000E0913203F0913303138615861486DF0195
:102040001B9633961E92AE17BF07E1F7109231032D
:1020500011E0BE01665F7F4F8091320390913303A0
:102060000E94EC0D882309F451C067E0CE010A9666
:102070000E945F0499898913ECCF80912D0381110F
:1020800027C080913203909133030E942E05BE0138
:10209000665F7F4F80913203909133030E94010568
:1020A00040E064EB80913203909133030E94BF04BF
:1020B00080913203909133030E946C04082F809129
:1020C0003203909133030E942E05002309F4EBC4E0
:1020D000BE016F5F7F4FCE010A960E947C0E009179
:1020E0002E03CE010A960E94D10E801718F480911B
:1020F0002E0304C0CE010A960E94D10E80932E03B7
:10210000809131038F5F80933103A3CF10921B0224
:1021100010921A02109219021092180210921702CD
:1021200081E0809316021092150261E082E10E9424
:10213000C30B61E083E10E94C30B8091B9008E7FE5
:102140008093B9008091B9008D7F8093B90088E4B5
:102150008093B80085E48093BC0010924503809181
:102160004A03823018F098E0909345038093480327
:1021700062E370E080E090E00E942F0C60914B03DE
:1021800080E493E00E94B30C68EE73E080E090E09E
:102190000E942F0C60E380E493E00E94180D0BE492
:1021A00016E4C8010197F1F760E380E493E00E9430
:1021B000180DC8010197F1F760E380E493E00E94F5
:1021C000180D83E592E00197F1F760E280E493E077
:1021D0000E94180D60914503606240E080E493E046
:1021E0000E94310D84E08093460340E06CE080E47F
:1021F00093E00E94310D0E94E10D82E0809347033D
:1022000040E066E080E493E00E94310D40E062E04F
:1022100080E493E00E94310D8BE39FE10197F1F799
:102220002091080130E0A8EEB3E00E94B01860935E
:102230002C0270932D0280932E0290932F022091F6
:10224000070130E00E94B0186093280270932902C1
:1022500080932A0290932B0288E080934B0360E0E6
:1022600080E493E00E94B30C67EE73E080E493E0B7
:102270000E94DC0961E080E00E94B10D66ED73E030
:1022800080E493E00E94DC0960E08AE00E94F30BA6
:1022900061E08AE00E94C30B61E08BE00E94F30BD7
:1022A00061E08DE00E94F30B61E08CE00E94F30B93
:1022B00060E082E00E94F30B60E083E00E94F30B99
:1022C00060E084E00E94F30B60E085E00E94F30B85
:1022D000609100018BE00E94C30B60910B018CE0C8
:1022E0000E94C30B68EE73E080E090E00E942F0C28
:1022F00080E090E00E9464058093080181E090E016
:102300000E9464058093070182E090E00E946405CA
:1023100080930A0183E090E00E94640580930901A4
:1023200084E090E00E9464058093060185E090E0DF
:102330000E9464058093040186E090E00E94640599
:102340008093030187E090E00E946405809302017E
:1023500088E090E00E94640591E0811101C090E066
:10236000909301010E94E10D65EC73E080E493E03D
:102370000E94DC0960E08CE00E94C30B2091060102
:1023800088EE93E0289FB001299F700D1124072E3D
:10239000000C880B990B0E942F0C61E08CE00E94CE
:1023A000C30B61E080E00E94B10D64EB73E080E458
:1023B00093E00E94DC0964EF71E080E090E00E940D
:1023C0002F0C0E94E10D64EA73E084E892E00E9421
:1023D000DC096FE671E084E892E00E94000A11E0F7
:1023E0009E012F5F3F4F790100E12FB7F894809154
:1023F0001D0290911E02A0911F02B09120022FBFDA
:102400004091350250913602609137027091380246
:102410005C016D01A41AB50AC60AD70A28EEA216F5
:1024200023E0B206C104D10408F416C1809335023A
:1024300090933602A0933702B09338020E94B205FF
:1024400080910D01813039F08D3029F08091340276
:102450008F5F8093340280913402843130F0109386
:102460000D01109234020E94E10D80912702882311
:1024700009F478C062E771E084E892E00E94400BC2
:10248000409123025091240260912502709126020E
:1024900021E084E892E00E945E0A6FE671E084E841
:1024A00092E00E94000A6CE771E084E892E00E94EA
:1024B000400B809103010E949A0D66E871E084E868
:1024C00092E00E94400B809102010E949A0D60E907
:1024D00071E084E892E00E94400B8091010190E05D
:1024E0000E94840D6AE971E084E892E00E94400B4A
:1024F000809134020E949A0D6AE074E084E892E0D0
:102500000E94DC0980911C0290E00E94840D67EF1C
:1025100073E084E892E00E94DC098AE00E949A0B52
:102520000E94840D64EA71E084E892E00E94400B0E
:1025300080915A0390915B03009711F48EE593E02C
:102540005701A81AB90AC5010E94840D6FEA71E00B
:1025500084E892E00E94000A6FE671E084E892E06D
:102560000E94000A80910C01882309F443C0109254
:102570000C0161E08DE00E94C30B60E080E00E94EE
:10258000B10D10922F0380913203909133030E947A
:102590002E0540E06CEC80913203909133030E9451
:1025A000BF0440912D0364E4809132039091330382
:1025B0000E94BF0480912F038823A9F0E0912E038D
:1025C000E950E33040F4F0E0EE0FFF1FE25FFE4F12
:1025D0006081718102C06EEE72E0072E000C880BE4
:1025E000990B0E942F0C80910D018130A9F56EEBA3
:1025F00071E02EC010930C0160E08DE00E94C30BCF
:1026000060E080E00E94B10D0E940C0F20E030E0FD
:1026100048EC52EC0E94DE1718165CF40E940C0F76
:1026200060932302709324028093250290932602E4
:1026300009C080912102909122020196909322027A
:102640008093210280910D01813031F46CE671E0BC
:1026500080E493E00E94400BB0900101B11015C0DE
:102660008AE00E949A0B892B09F04EC060E971E064
:1026700080E090E00E942F0C8AE00E949A0B892B48
:1026800081F510931C0260E02FC04090230250900F
:1026900024026090250270902602C0900301D12C84
:1026A000809102019601281B3109B901330F880B73
:1026B000990B0E942E179B01AC01C301B2010E942D
:1026C000861687FD15C0B601DD0C880B990B0E949C
:1026D0002E179B01AC01C301B2010E94DE1787FDDA
:1026E0000EC010921C0261E08BE00E94C30B0CC074
:1026F0008AE00E949A0B892B09F4D8C1E4CF8AE0C2
:102700000E949A0B019769F382E00E949A0B01974D
:10271000C9F46AEF70E080E090E00E942F0C82E044
:102720000E949A0B019771F41092340280910D016E
:102730008F5F813118F480930D0104C010930D0157
:102740000E94E10D85E00E949A0B0197C1F46AEFA7
:1027500070E080E090E00E942F0C85E00E949A0BD0
:10276000019769F41092340280910D01815019F0A3
:1027700080930D0104C000930D010E94E10D83E0E0
:102780000E949A0B019709F07CC01092340264EB0E
:1027900070E080E090E00E942F0CE0910D018E2F00
:1027A00090E0FC013297ED30F10508F06AC0EC5C76
:1027B000FF4F0C94AA18809108018F5F8093080145
:1027C00005C0809107018F5F809307010E94B205C9
:1027D00058C080910A018F5F80930A01F7CF8091E2
:1027E00009018F5F80930901F1CF809106018F5F0E
:1027F000863008F085E080930601E8CF80910501DE
:10280000882319F010920501E1CF10930501DECF66
:10281000809104018F5F80930401D8CF80910301E0
:102820008F35A0F68B5F80930301D0CF809102019A
:10283000853060F68F5F80930201C8CFBB2019F00E
:1028400010920101C3CF10930101C0CF0E94660511
:10285000BDCF80910001882319F01092000102C0C1
:1028600010930001609100018BE00E94C30BAECF7A
:1028700080912702811103C01093270202C0109299
:10288000270284E00E949A0B019709F07BC0109206
:10289000340264EB70E080E090E00E942F0CE09145
:1028A0000D018E2F90E0FC013297ED30F10508F01C
:1028B00069C0EF5BFF4F0C94AA188091080181500A
:1028C0008093080153C080910701815080930701D4
:1028D0004DC080910A01815080930A0147C08091C8
:1028E000090181508093090141C080910601815006
:1028F000809306013BC080910501882319F0109256
:10290000050134C01093050131C08091040181504C
:10291000809304012BC080910301893238F18550E6
:102920008093030123C0809102018823F9F0815034
:10293000809302011BC080910101882319F010923D
:10294000010114C01093010111C00E9466050EC060
:1029500080910B01882319F010920B0102C0109393
:102960000B0160910B018CE00E94C30B0E94B20529
:1029700009C080912702811103C01093270202C071
:102980001092270280911C02882399F0209108015F
:1029900030E0A8EEB3E00E94B01860932C02709370
:1029A0002D0280932E0290932F022091070130E098
:1029B00014C020910A0130E0A8EEB3E00E94B018E4
:1029C00060932C0270932D0280932E0290932F021D
:1029D0002091090130E0A0E6BAEE0E94B0186093A1
:1029E00028027093290280932A0290932B022FB71A
:1029F000F89480911D0290911E02A0911F02B09147
:102A000020022FBF20910B014091300250913102E2
:102A100060913202709133022C013D01441A550A33
:102A2000660A770A21111DC040912C0250912D0297
:102A300060912E0270912F024416550666067706A5
:102A400078F120910D012C3059F110930B018093F6
:102A5000300290933102A0933202B093330261E0CE
:102A60001CC0409128025091290260912A02709165
:102A70002B02441655066606770690F020910D014C
:102A80002C3071F010920B01809330029093310240
:102A9000A0933202B093330260E08CE00E94C30B3B
:102AA0000E947D09A2CC10932D0312CB10931C021F
:102AB00060E08BE00E94C30B06CE1092870210925A
:102AC000860288EE93E0A0E0B0E0809388029093C5
:102AD0008902A0938A02B0938B0220E231E0309306
:102AE00085022093840225EC30E0309391022093FC
:102AF000900224EC30E0309393022093920220EC79
:102B000030E0309395022093940221EC30E0309332
:102B100097022093960222EC30E0309399022093A2
:102B2000980226EC30E030939B0220939A02109298
:102B30009D0210929E0210929F021092A00210928B
:102B40002403109223038093250390932603A093DC
:102B50002703B093280382E391E0909322038093AC
:102B60002103109243031092420384E491E0909376
:102B700041038093400387E28093440380E1809384
:102B8000490382E080934A0310924B0360E086E0A1
:102B90000E94F30BE5E7F4E0E491E0934C03E1E6F7
:102BA000F4E0E491F0E0EE0FFF1FEF5AFB4F859148
:102BB000949190934E0380934D031092570310927B
:102BC000590310925803E7E5F3E0129283E0EF34E3
:102BD000F807D9F788E293E090933F0380933E0390
:102BE0008CE493E09093330380933203109231038B
:102BF00010922D0389E080932E0381E080932F03B0
:102C0000809330030895F999FECF92BD81BDF89A63
:102C1000992780B50895262FF999FECF1FBA92BD46
:102C200081BD20BD0FB6F894FA9AF99A0FBE0196AD
:102C300008955058BB27AA270E9431160C94A41758
:102C40000E94961738F00E949D1720F039F49F3F9C
:102C500019F426F40C9493170EF4E095E7FB0C940A
:102C60008D17E92F0E94B51758F3BA17620773073B
:102C70008407950720F079F4A6F50C94D7170EF485
:102C8000E0950B2EBA2FA02D0B01B90190010C017C
:102C9000CA01A0011124FF27591B99F0593F50F494
:102CA000503E68F11A16F040A22F232F342F4427EC
:102CB000585FF3CF469537952795A795F0405395E4
:102CC000C9F77EF41F16BA0B620B730B840BBAF0B4
:102CD0009150A1F0FF0FBB1F661F771F881FC2F71F
:102CE0000EC0BA0F621F731F841F48F48795779533
:102CF0006795B795F7959E3F08F0B0CF9395880FED
:102D000008F09927EE0F9795879508950E94691707
:102D100008F481E008950E949F160C94A4170E9465
:102D20009D1758F00E94961740F029F45F3F29F054
:102D30000C948D1751110C94D8170C9493170E9472
:102D4000B51768F39923B1F3552391F3951B550BF0
:102D5000BB27AA2762177307840738F09F5F5F4F6E
:102D6000220F331F441FAA1FA9F335D00E2E3AF0AD
:102D7000E0E832D091505040E695001CCAF72BD0C5
:102D8000FE2F29D0660F771F881FBB1F2617370716
:102D90004807AB07B0E809F0BB0B802DBF01FF2748
:102DA00093585F4F3AF09E3F510578F00C948D1781
:102DB0000C94D8175F3FE4F3983ED4F3869577954B
:102DC0006795B795F7959F5FC9F7880F911D969501
:102DD000879597F90895E1E0660F771F881FBB1F5D
:102DE000621773078407BA0720F0621B730B840B0A
:102DF000BA0BEE1F88F7E09508950E94BD1788F082
:102E00009F5798F0B92F9927B751B0F0E1F0660FAE
:102E1000771F881F991F1AF0BA95C9F714C0B130EF
:102E200091F00E94D717B1E008950C94D717672F3F
:102E3000782F8827B85F39F0B93FCCF3869577951E
:102E40006795B395D9F73EF4909580957095619507
:102E50007F4F8F4F9F4F0895E89409C097FB3EF432
:102E600090958095709561957F4F8F4F9F4F9923D7
:102E7000A9F0F92F96E9BB279395F6958795779555
:102E80006795B795F111F8CFFAF4BB0F11F460FF15
:102E90001BC06F5F7F4F8F4F9F4F16C0882311F06D
:102EA00096E911C0772321F09EE8872F762F05C081
:102EB000662371F096E8862F70E060E02AF09A951C
:102EC000660F771F881FDAF7880F9695879597F911
:102ED0000895990F0008550FAA0BE0E8FEEF1616AB
:102EE0001706E807F907C0F012161306E407F507FE
:102EF00098F0621B730B840B950B39F40A2661F072
:102F0000232B242B252B21F408950A2609F4A14014
:102F1000A6958FEF811D811D089597F99F6780E821
:102F200070E060E008959FEF80EC089500240A941B
:102F30001616170618060906089500240A94121694
:102F40001306140605060895092E0394000C11F4C7
:102F5000882352F0BB0F40F4BF2B11F460FF04C074
:102F60006F5F7F4F8F4F9F4F089557FD9058440FCD
:102F7000551F59F05F3F71F04795880F97FB991FD8
:102F800061F09F3F79F08795089512161306140695
:102F9000551FF2CF4695F1DF08C016161706180622
:102FA000991FF1CF86957105610508940895E894FD
:102FB000BB2766277727CB0197F908950E946917E9
:102FC00008F48FEF08950E94F6170C94A4170E943E
:102FD000961738F00E949D1720F0952311F00C945D
:102FE0008D170C94931711240C94D8170E94B517C1
:102FF00070F3959FC1F3950F50E0551F629FF0014C
:10300000729FBB27F00DB11D639FAA27F00DB11D64
:10301000AA1F649F6627B00DA11D661F829F2227ED
:10302000B00DA11D621F739FB00DA11D621F839F74
:10303000A00D611D221F749F3327A00D611D231F4A
:10304000849F600D211D822F762F6A2F11249F5798
:1030500050409AF0F1F088234AF0EE0FFF1FBB1F9B
:10306000661F771F881F91505040A9F79E3F51055A
:1030700080F00C948D170C94D8175F3FE4F3983EC2
:10308000D4F3869577956795B795F795E7959F5F04
:10309000C1F7FE2B880F911D9695879597F9089596
:1030A0000E946917880B990B089597FB072E16F459
:1030B000009407D077FD09D00E94BF1807FC05D007
:1030C0003EF4909581959F4F0895709561957F4F3F
:1030D0000895A1E21A2EAA1BBB1BFD010DC0AA1F59
:1030E000BB1FEE1FFF1FA217B307E407F50720F071
:1030F000A21BB30BE40BF50B661F771F881F991FEC
:103100001A9469F760957095809590959B01AC0134
:10311000BD01CF010895052E97FB1EF400940E9477
:10312000A21857FD07D00E94691807FC03D04EF47F
:103130000C94A21850954095309521953F4F4F4FD4
:103140005F4F089590958095709561957F4F8F4F53
:103150009F4F0895EE0FFF1F0590F491E02D099405
:10316000A29FB001B39FC001A39F700D811D1124C8
:10317000911DB29F700D811D1124911D0895AA1BF0
:10318000BB1B51E107C0AA1FBB1FA617B70710F052
:10319000A61BB70B881F991F5A95A9F78095909584
:0A31A000BC01CD010895F894FFCFA3
:1031AA000101033C0A0102030403040101015E0058
:1031BA00BC00770100004000140054000000000029
:1031CA0014098108AC085B09DD08BB08CF080000B8
:1031DA000000F502C50225039F02BD02AE02A0024D
:1031EA000000000029038108250324034F4B006DCA
:1031FA00696E002043003E3E00543D200045727433
:10320A00656B3D20004B4920200042452020000DDF
:10321A000A0054656D702020203A200073657454AA
:10322A00656D703A2000486973746572203A20000F
:10323A00546865726D6F733A20006D54696D6572DA
:10324A00203A200046726565206D656D3A20002D92
:10325A002D2D2D2D2D2D2D2D2D2D2D2D2D002A20D1
:0E326A00006E616E00696E66006F7666000091
:107800000C94343C0C94513C0C94513C0C94513CE1
:107810000C94513C0C94513C0C94513C0C94513CB4
:107820000C94513C0C94513C0C94513C0C94513CA4
:107830000C94513C0C94513C0C94513C0C94513C94
:107840000C94513C0C94513C0C94513C0C94513C84
:107850000C94513C0C94513C0C94513C0C94513C74
:107860000C94513C0C94513C11241FBECFEFD8E036
:10787000DEBFCDBF11E0A0E0B1E0ECE9FFE702C060
:1078800005900D92A230B107D9F712E0A2E0B1E065
:1078900001C01D92AD30B107E1F70E942D3D0C945F
:1078A000CC3F0C94003C982F959595959595959582
:1078B000905D8F708A307CF0282F295A8091C0000B
:1078C00085FFFCCF9093C6008091C00085FFFCCF60
:1078D0002093C6000895282F205DF0CF982F809127
:1078E000C00085FFFCCF9093C6000895EF92FF92F1
:1078F0000F931F93EE24FF2487018091C00087FD22
:1079000017C00894E11CF11C011D111D81E4E8164B
:1079100082E4F8068FE0080780E0180770F3E09132
:107920000401F091050109958091C00087FFE9CF1E
:107930008091C6001F910F91FF90EF9008950E94D3
:10794000763C982F8091C00085FFFCCF9093C600B5
:1079500091362CF490330CF09053892F089597555D
:10796000892F08951F930E949F3C182F0E949F3CCF
:107970001295107F810F1F9108951F93182F882350
:1079800021F00E94763C1150E1F71F9108951F935A
:10799000182F0E94763C803249F0809103018F5F5E
:1079A000809303018530C1F01F9108958091C0003C
:1079B00085FFFCCF84E18093C6008091C00085FFE5
:1079C000FCCF1093C6008091C00085FFFCCF80E102
:1079D0008093C6001F910895E0910401F091050184
:1079E00009951F9108950E94763C803241F0809164
:1079F00003018F5F80930301853081F008958091AA
:107A0000C00085FFFCCF84E18093C6008091C00058
:107A100085FFFCCF80E18093C6000895E0910401CA
:107A2000F09105010995089540E951E08823A1F0FE
:107A30002D9A28EE33E0FA013197F1F721503040CA
:107A4000D1F72D9828EE33E0FA013197F1F7215064
:107A50003040D1F7815061F708953F924F925F9285
:107A60006F927F928F929F92AF92BF92CF92DF924E
:107A7000EF92FF920F931F93CF93DF93000080E16B
:107A80008093C4001092C50088E18093C10086E015
:107A90008093C2005098589A259A81E00E94143D24
:107AA00024E1F22E9EE1E92E85E9D82E0FE0C02ECA
:107AB00010E1B12EAA24A394B1E49B2EA6E58A2E50
:107AC000F2E57F2EE0E26E2E79E4572E63E5462E36
:107AD00050E5352E0E94763C8033B1F18133B9F107
:107AE000803409F46FC0813409F476C0823409F41B
:107AF00085C0853409F488C0803531F1823521F1A3
:107B0000813511F1853509F485C0863509F48DC0BC
:107B1000843609F496C0843709F403C1853709F423
:107B200072C1863709F466C0809103018F5F80932C
:107B30000301853079F6E0910401F0910501099582
:107B40000E94763C803351F60E94F33CC3CF0E94E2
:107B5000763C803249F78091C00085FFFCCFF092DF
:107B6000C6008091C00085FFFCCF9092C600809136
:107B7000C00085FFFCCF8092C6008091C00085FFC9
:107B8000FCCF7092C6008091C00085FFFCCF609250
:107B9000C6008091C00085FFFCCF5092C600809146
:107BA000C00085FFFCCF4092C6008091C00085FFD9
:107BB000FCCF3092C6008091C00085FFFCCFB09210
:107BC000C60088CF0E94763C863808F4BDCF0E945C
:107BD000763C0E94F33C7ECF0E94763C803809F4CC
:107BE0009CC0813809F40BC1823809F43CC1883942
:107BF00009F48FC080E00E94C73C6CCF84E10E94F2
:107C0000BD3C0E94F33C66CF85E00E94BD3C0E94D3
:107C1000F33C60CF0E94763C809306010E94763C44
:107C2000809307010E94F33C55CF0E94763C80333D
:107C300009F41DC183E00E94BD3C80E00E94C73C66
:107C400049CF0E94763C809309020E94763C809343
:107C5000080280910C028E7F80930C020E94763C79
:107C6000853409F415C18091080290910902892B8D
:107C700089F000E010E00E94763CF801E85FFE4FDA
:107C800080830F5F1F4F80910802909109020817AF
:107C9000190788F30E94763C803209F045CF809125
:107CA0000C0280FF01C16091060170910701660F0F
:107CB000771F7093070160930601A0910802B091AD
:107CC00009021097C9F0E8E0F1E09B01AD014E0F09
:107CD0005F1FF999FECF32BD21BD819180BDFA9A17
:107CE000F99A2F5F3F4FE417F50799F76A0F7B1F4B
:107CF00070930701609306018091C00085FFFCCF5F
:107D0000F092C6008091C00085FFFCCFB092C60003
:107D1000E1CE83E00E94C73CDDCE82E00E94C73CFA
:107D2000D9CE0E94763C809309020E94763C8093D3
:107D300008028091060190910701880F991F909386
:107D40000701809306010E94763C853409F4A6C0A1
:107D500080910C028E7F80930C020E94763C8032D0
:107D600009F0B8CE8091C00085FFFCCFF092C6002C
:107D7000609108027091090261157105B9F140E046
:107D800050E080910C02A82FA170B82FB27011C0E2
:107D9000BB2309F45CC0E0910601F0910701319624
:107DA000F0930701E09306014F5F5F4F46175707B7
:107DB000E8F4AA2369F3F999FECF209106013091E6
:107DC000070132BD21BDF89A90B58091C00085FFB2
:107DD000FCCF9093C6002F5F3F4F30930701209355
:107DE00006014F5F5F4F4617570718F38091C00099
:107DF00085FDE5CE8091C00085FFF8CFE0CE81E023
:107E00000E94C73C67CE0E94763C803209F08CCE3F
:107E10008091C00085FFFCCFF092C6008091C00029
:107E200085FFFCCFE092C6008091C00085FFFCCFAB
:107E3000D092C6008091C00085FFFCCFC092C600E2
:107E40008091C00085FFFCCFB092C60043CEE09188
:107E50000601F091070194918091C00085FFFCCF4D
:107E60009093C6009CCF80E10E94C73C33CE0E9415
:107E7000763C0E94763C182F0E94763C112309F430
:107E800083C0113009F484C08FE00E94C73C22CE29
:107E900080910C02816080930C02E5CE80910C02EF
:107EA000816080930C0259CF809107018823880F4D
:107EB000880B8A2180930B02809106019091070123
:107EC000880F991F90930701809306018091080203
:107ED00080FF09C080910802909109020196909359
:107EE000090280930802F894F999FECF1127E091D6
:107EF0000601F0910701C8E0D1E08091080290915D
:107F00000902103091F40091570001700130D9F34B
:107F100003E000935700E89500915700017001308D
:107F2000D9F301E100935700E89509901990009169
:107F3000570001700130D9F301E000935700E89534
:107F40001395103498F011270091570001700130FB
:107F5000D9F305E000935700E895009157000170B0
:107F60000130D9F301E100935700E895329602976A
:107F700009F0C7CF103011F00296E5CF112480919F
:107F8000C00085FFB9CEBCCE8EE10E94C73CA2CD19
:0C7F900085E90E94C73C9ECDF894FFCF0D
:027F9C00800063
:040000030000780081
:00000001FF
