:100000000C9476000C949E000C949E000C949E0020
:100010000C949E000C949E000C949E000C949E00E8
:100020000C949E000C949E000C949E000C949E00D8
:100030000C949E000C949E000C949E000C949E00C8
:100040000C94E8090C949E000C94D50C0C94070DAC
:100050000C949E000C949E000C949E000C949E00A8
:100060000C9491070C949E0024042A043004360456
:100070003C0442044D0453046804A004A604AC04E8
:10008000B204B804BE04C904CF04E40400000008AC
:10009000000201000003040700000000000000004F
:1000A000010204081020408001020408102001020F
:1000B00004081020040404040404040402020202DC
:1000C00002020303030303030000000023002600D1
:1000D000290000000000250028002B00000000007F
:1000E000240027002A002B06F306370D11241FBE1B
:1000F000CFEFD8E0DEBFCDBF12E0A0E0B1E0E2E09C
:10010000FEE102C005900D92AA3EB107D9F724E0A6
:10011000AAEEB2E001C01D92AF36B207E1F710E0DF
:10012000CCEED0E004C02297FE010E94CB0EC63E6A
:10013000D107C9F70E947B0D0C94FF0E0C940000B0
:100140000C94E90E0C94F10E809123010E94670B30
:10015000892BC1F460E971E080E090E00E94610ABF
:10016000809123010E94670B892B29F481E0809301
:10017000FA0260E003C01092FA0261E0809121016E
:100180000C94310B089540E060E08DEF92E00E9406
:100190004D0980910F01813009F054C040E060E0CA
:1001A0008DEF92E00E944D096DE271E08DEF92E0DB
:1001B0000E94C80D8091FA02882319F064E371E06F
:1001C00002C06DE371E08DEF92E00E94C80D41E046
:1001D00060E08DEF92E00E944D0966E471E08DEFE2
:1001E00092E00E94C80D0E94320A20E63AEE40E0FA
:1001F00050E00E94A70EBA01A9012AE030E08DEF7D
:1002000092E00E94920E61E571E08DEF92E00E9413
:10021000C80D80911A0190911B0140E06EE0892B7E
:1002200039F48DEF92E00E944D0964E571E006C05B
:100230008DEF92E00E944D0967E571E08DEF92E04D
:100240000E94C80D80910F01823031F540E060E0DE
:100250008DEF92E00E944D096AE571E08DEF92E02A
:100260000E94C80D41E060E08DEF92E00E944D09D0
:100270006BE671E08DEF92E00E94C80D4AE050E01D
:1002800060910D018DEF92E00E949F0E6FE671E08C
:100290008DEF92E00E94C80D80910F01833031F5FF
:1002A00040E060E08DEF92E00E944D096BE771E065
:1002B0008DEF92E00E94C80D41E060E08DEF92E08A
:1002C0000E944D096BE671E08DEF92E00E94C80D2F
:1002D0004AE050E060910E018DEF92E00E949F0E87
:1002E0006CE871E08DEF92E00E94C80D80910F01E3
:1002F000843031F540E060E08DEF92E00E944D09DE
:1003000069E971E08DEF92E00E94C80D41E060E084
:100310008DEF92E00E944D096BE671E08DEF92E067
:100320000E94C80D4AE050E060910B018DEF92E011
:100330000E949F0E6CE871E08DEF92E00E94C80D64
:1003400080910F01853031F540E060E08DEF92E063
:100350000E944D096AEA71E08DEF92E00E94C80D9B
:1003600041E060E08DEF92E00E944D096BE671E0A4
:100370008DEF92E00E94C80D4AE050E060910C01C0
:100380008DEF92E00E949F0E6BEB71E08DEF92E09B
:100390000E94C80D80910F01863031F540E060E089
:1003A0008DEF92E00E944D0967EC71E08DEF92E0D5
:1003B0000E94C80D41E060E08DEF92E00E944D097F
:1003C0006BE671E08DEF92E00E94C80D4AE050E0CC
:1003D00060910A018DEF92E00E949F0E6CE871E03F
:1003E0008DEF92E00E94C80D80910F018730A1F53A
:1003F00040E060E08DEF92E00E944D0968ED71E011
:100400008DEF92E00E94C80D41E060E08DEF92E038
:100410000E944D0969EE71E08DEF92E00E94C80DD7
:100420006091080170E04AE050E08DEF92E00E9498
:100430008A0E60E971E08DEF92E00E94C80D809114
:100440000801882329F08DEF92E00E94EC0804C097
:100450008DEF92E00E94E70880910F01883031F51E
:1004600040E060E08DEF92E00E944D0961EF71E0A5
:100470008DEF92E00E94C80D41E060E08DEF92E0C8
:100480000E944D096BE671E08DEF92E00E94C80D6D
:100490004AE050E0609109018DEF92E00E949F0ECA
:1004A00062E072E08DEF92E00E94C80D80910F0132
:1004B0008930C1F440E060E08DEF92E00E944D0988
:1004C00060E172E08DEF92E00E94C80D41E060E0D3
:1004D0008DEF92E00E944D0961E272E08DEF92E0B3
:1004E0000E94C80D80910F018A3091F540E060E0D4
:1004F0008DEF92E00E944D0962E372E08DEF92E091
:100500000E94C80D60911A0170911B014AE050E0F1
:100510008DEF92E00E948A0E65E971E08DEF92E026
:100520000E94C80D41E060E08DEF92E00E944D090D
:100530006FE372E08DEF92E00E94C80D60911801A8
:10054000709119014AE050E08DEF92E00C948A0E10
:10055000089580E090E00E94A00080930D0181E06A
:1005600090E00E94A00080930E0182E090E00E9443
:10057000A00080930B0183E090E00E94A000809394
:100580000C0184E090E00E94A00080930A0185E0C5
:1005900090E00E94A000809309010895CF92DF921D
:1005A000EF92FF920F931F93CF93DF9326E040E8E3
:1005B00055E260E070E082ED93E00E94730C8DEFF5
:1005C00092E00E94E609C0900401D0900501E090FD
:1005D0000601F0900701A0910D01B0E0A70196017E
:1005E0000E94CF0E6093EE027093EF028093F002B0
:1005F0009093F102A0910E01B0E00E94CF0E6093A3
:10060000EA027093EB028093EC029093ED028DEF7F
:1006100092E00E94EC086CE472E08DEF92E00E94A0
:10062000C80D41E060E08DEF92E00E944D096CE55D
:1006300072E08DEF92E00E94C80DC3E2D1E060E06D
:1006400088810E94F80A61E088810E94310B01E2F2
:1006500011E061E0F80180810E94F80A61E0809178
:100660001D010E94F80ACFE1D1E061E088810E947B
:10067000F80A60E0809116010E94F80A60E080911B
:1006800014010E94F80A60E0809112010E94F80AA9
:1006900060E0809110010E94F80A60911801F80151
:1006A00080810E94310B60911A0188810E94310B78
:1006B00068EE73E080E090E00E94610A8DEF92E0C6
:1006C0000E943F096DE672E08DEF92E00E94C80D36
:1006D00060E088810E94310B20910A0188EE93E04E
:1006E000289FB001299F700D1124882777FD8095E0
:1006F000982F0E94610A61E088810E94310B41E0DD
:1007000060E08DEF92E00E944D096EE772E08DEFA0
:1007100092E00E94C80D64EF71E080E090E00E94DA
:10072000610A8DEF92E00E943F096FE872E082ED6E
:1007300093E00E94D50DDF91CF911F910F91FF9013
:10074000EF90DF90CF900C94A90260910D0180E0B2
:1007500090E00E94A20060910E0181E090E00E9472
:10076000A20060910B0182E090E00E94A2006091E3
:100770000C0183E090E00E94A20060910A0184E0F5
:1007800090E00E94A2006091090185E090E00C9445
:10079000A200809116010E94670B0197C1F460E2EC
:1007A00073E080E090E00E94610A809116010E944F
:1007B000670B019761F481E08093FB021092FC02C9
:1007C00080910F018A3018F48F5F80930F01809120
:1007D00010010E94670B0197C1F460E273E080E0B2
:1007E00090E00E94610A809110010E94670B0197BE
:1007F00061F481E08093FB021092FC0280910F0172
:10080000823018F0815080930F01809114010E9472
:10081000670B019709F075C01092FC0281E080938C
:10082000FB026EE571E080E090E00E94610A809139
:100830000F0190E0FC013297E930F10508F061C04A
:10084000EC5CFF4F0C94C90E80910D018F5F80937B
:100850000D0155C080910E018F5F80930E014FC036
:1008600080910B018F5F80930B0149C080910C0137
:100870008F5F80930C0143C080910A018F5F80934A
:100880000A013DC080910801882319F010920801E7
:1008900036C081E08093080132C0809109018F5FEA
:1008A000809309012CC00E94A50341E060E08DEF18
:1008B00092E00E944D096FE972E08DEF92E00E9494
:1008C000C80D64EF71E080E090E00E94610A17C0FB
:1008D0008091180190911901019729F41092190142
:1008E0001092180106C081E090E090931901809366
:1008F000180160911801809121010E94310B0E9422
:10090000C300809112010E94670B019709F075C026
:100910001092FC0281E08093FB026EE571E080E0C2
:1009200090E00E94610A80910F0190E0FC013297F3
:10093000E930F10508F061C0E35CFF4F0C94C90E8B
:1009400080910D01815080930D0155C080910E0161
:10095000815080930E014FC080910B018150809394
:100960000B0149C080910C01815080930C0143C060
:1009700080910A01815080930A013DC08091080155
:10098000882319F01092080136C081E08093080195
:1009900032C0809109018150809309012CC00E94CE
:1009A000A50341E060E08DEF92E00E944D096FE900
:1009B00072E08DEF92E00E94C80D64EF71E080E07C
:1009C00090E00E94610A17C080911A0190911B016A
:1009D000019729F410921B0110921A0106C081E0C0
:1009E00090E090931B0180931A0160911A0180910D
:1009F0001F010E94310B0C94C3000895CF92DF9227
:100A0000EF92FF928091FA02C0900401D09005010C
:100A1000E0900601F0900701882391F0A0910D016C
:100A2000B0E0A70196010E94CF0E6093EE02709392
:100A3000EF028093F0029093F102A0910E0119C091
:100A4000A0910B01B0E0A70196010E94CF0E609328
:100A5000EE027093EF028093F0029093F102A09166
:100A60000C0120910001309101014091020150914F
:100A70000301B0E00E94CF0E6093EA027093EB0294
:100A80008093EC029093ED02FF90EF90DF90CF9077
:100A90000895CF92DF92EF92FF920F931F930E94DF
:100AA000320A0091F6021091F7022091F80230917B
:100AB000F9026B017C01C01AD10AE20AF30A48EE7E
:100AC000C41643E0D406E104F10408F444C0609382
:100AD000F6027093F7028093F8029093F9020E9455
:100AE000C30080910F01813029F08091FC028F5F5B
:100AF0008093FC028091FC02843128F081E0809395
:100B00000F011092FC0280911C01882381F0109249
:100B10001C0161E080911D010E94310B41E06FE0FA
:100B20008DEF92E00E944D0960EB72E010C081E011
:100B300080931C0160E080911D010E94310B41E017
:100B40006FE08DEF92E00E944D0967E971E08DEF53
:100B500092E00E94C80D0E94A4000E94C9030E9456
:100B6000FE040E94320A20911A0130911B012115C6
:100B7000310589F50091F2021091F3022091F402FF
:100B80003091F5026B017C01C01AD10AE20AF30A26
:100B90000091EE021091EF022091F0023091F102EB
:100BA000C016D106E206F30608F44EC020910F01EC
:100BB0002A3009F449C021E030E030931B01209332
:100BC0001A016093F2027093F3028093F4029093FF
:100BD000F50261E02FC021303105B1F50091F2023C
:100BE0001091F3022091F4023091F5026B017C0127
:100BF000C01AD10AE20AF30A0091EA021091EB024C
:100C00002091EC023091ED02C016D106E206F30607
:100C1000D8F020910F012A30B9F010921B011092E8
:100C20001A016093F2027093F3028093F40290939E
:100C3000F50260E080911F011F910F91FF90EF90EE
:100C4000DF90CF900C94310B1F910F91FF90EF909C
:100C5000DF90CF90089522E040E167E28DEF92E0CF
:100C60000C94BE088091390390E020913A03821BD6
:100C70009109089520913A0380913903281750F47F
:100C8000E22FF0E0E55CFC4F808190E02F5F209345
:100C90003A0308958FEF9FEF0895E0913A03809112
:100CA0003903E81730F4F0E0E55CFC4F808190E018
:100CB00008958FEF9FEF08950895CF92DF92EF92FE
:100CC000FF920F931F93CF93DF937C01CB018A0197
:100CD00020911503222389F0EB016B01C40ED51E70
:100CE000CC15DD0569F06991D701ED91FC9101907A
:100CF000F081E02DC7010995F3CF642F0E946807AA
:100D0000C801DF91CF911F910F91FF90EF90DF907D
:100D1000CF900895CF93DF931F92CDB7DEB769834D
:100D2000209115032223D1F020911603203240F0A8
:100D300021E030E0FC013383228380E090E015C0A5
:100D400080911703E82FF0E0E85EFC4F99819083D3
:100D50008F5F809317038093160305C061E0CE0177
:100D600001960E94680781E090E00F90DF91CF919B
:100D70000895FC011382128248EE53E060E070E0B7
:100D8000448355836683778386EB92E091838083E7
:100D9000089510923A03109239031092170310929B
:100DA00016030C94F70681E08093150360933803D3
:100DB000109217031092160308950F93062F21E047
:100DC0004091160368E173E0809138030E94150793
:100DD0001092170310921603109215030F910895A5
:100DE00061E00C94DD0689E093E00C94B906109262
:100DF000C80381E08093C6031092C50361E082E1DD
:100E00000E94310B61E083E10E94310BE9EBF0E0DD
:100E100080818E7F808380818D7F808388E4809332
:100E2000B80085E48093BC0008950F93413208F028
:100E300046C09091C8039111FCCF92E09093C803F3
:100E40000093C6039FEF90935B031092A00340931F
:100E50009F03FB0161EA73E0DB019A2F961B941755
:100E600018F491919D93F9CF1092C7039091C70305
:100E7000880F892B8093C7038091C503813041F48B
:100E80001092C5038091C7038093BB0085EC01C01D
:100E900085EE8093BC00222321F08091C80382302C
:100EA000E1F380915B038F3F61F080915B038032BF
:100EB00051F080915B03803341F483E007C081E00F
:100EC00005C080E003C082E001C084E00F91089576
:100ED000613298F42091C803243089F460937D0333
:100EE000FC018FE793E0DC012A2F281B261718F45A
:100EF00021912D93F9CF80E0089581E0089582E05B
:100F0000089585ED8093BC008091BC0084FDFCCFEA
:100F10001092C803089585EC8093BC001092C8031A
:100F200008951F920F920FB60F9211242F933F93A3
:100F30004F935F936F937F938F939F93AF93BF93E1
:100F4000EF93FF938091B900887F803609F49CC0AD
:100F500068F5883209F45BC090F4803109F454C01C
:100F600038F4882309F4F5C0883009F44DC0F5C081
:100F7000883109F44CC0803209F45DC0EEC0803481
:100F800009F468C048F4803309F455C0883309F087
:100F9000E4C080935B03A8C0803509F44FC0883556
:100FA00009F45DC0883409F0D8C0D5C0883909F487
:100FB000C6C0A8F4883709F467C038F4883609F445
:100FC00063C0803709F460C0C8C0883809F4B7C06E
:100FD000803909F45FC0803809F0BFC05BC0803B36
:100FE00009F485C038F4803A09F466C0883A09F4F7
:100FF0007EC0B3C0803C09F4A6C0883C09F4A3C0FD
:10100000883B09F489C0A9C08091C70310C09091A2
:10101000A00380919F03981770F5E091A00381E0F1
:101020008E0F8093A003F0E0EF55FC4F80818093FA
:10103000BB0085EC85C080935B038DC0E091A0036D
:1010400081E08E0F8093A0038091BB00F0E0EF550C
:10105000FC4F80839091A00380919F036DC0E0912D
:10106000A00381E08E0F8093A0038091BB00F0E08D
:10107000EF55FC4F80838091C60381116CC081E0E5
:101080008093C50384EA60C083E08093C803109214
:101090005C03CFCF80915C03803208F050C0E091B8
:1010A0005C0381E08E0F80935C038091BB00F0E0D5
:1010B000E35AFC4F8083BDCF80915C03803230F4D3
:1010C000E0915C03F0E0E35AFC4F10820E9481073C
:1010D00060915C0370E0E091C103F091C2038DE583
:1010E00093E0099510925C030E948B0736C084E060
:1010F0008093C80310927E0310927D03E091C30396
:10110000F091C403099580917D03811105C081E0B0
:1011100080937D0310927F03E0917E0381E08E0F28
:1011200080937E03F0E0E158FC4F80818093BB0008
:1011300090917E0380917D03981708F47ACF85E81B
:101140008093BC000AC085EC8093BC001092C80359
:1011500004C010925B030E948107FF91EF91BF9141
:10116000AF919F918F917F916F915F914F913F913F
:101170002F910F900FBE0F901F901895FC011382B6
:10118000128286EC92E09183808364834187228778
:10119000138608951F93CF93DF93EC01162F6C8174
:1011A00089E093E00E94D306E0910903F0910A03DD
:1011B0006B85612B0190F081E02D89E093E009952A
:1011C00089E093E0DF91CF911F910C94F006FC0130
:1011D000138660E00C94CA0828E0FC01238760E0D5
:1011E0000C94CA081F93CF93DF93EC01162F646011
:1011F0000E94CA0881E090E00E94890A612F6B7FFB
:10120000CE010E94CA0882E390E0DF91CF911F9146
:101210000C94890A1F93CF93DF93EC01162F0E9441
:10122000CA08612FCE01DF91CF911F910C94F20873
:10123000EF92FF921F93CF93DF931F92CDB7DEB74C
:101240007C01162F607F642B49830E940A0980E18C
:10125000189FB00111244981642BC7010F90DF91C1
:10126000CF911F91FF90EF900C940A0941E00E94EA
:10127000180980E090E0089540E00C94180961E0BE
:101280000E943C0980ED97E00C94890A62E00E947C
:101290003C0980ED97E00C94890ACF93DF93CDB79A
:1012A000DEB728970FB6F894DEBF0FBECDBF28E09B
:1012B000E5E2F1E0DE01119601900D922A95E1F749
:1012C000FC012085241710F44FEF420FFE013196E8
:1012D000E40FF11DE40FF11D2081260F2068622F1D
:1012E00028960FB6F894DEBF0FBECDBFDF91CF9129
:1012F0000C943C09FC016681262F246026836C60D7
:101300000C943C09CF93DF93EC01423018F08D81AF
:1013100088608D834887222329F0413019F48D811C
:1013200084608D8362E370E080E090E00E94610A57
:101330006B85CE010E94CA0868EE73E080E090E001
:101340000E94610A60E3CE010E940A0984E991E1EA
:101350000E94890A60E3CE010E940A0984E991E1B2
:101360000E94890A60E3CE010E940A0986E990E0A2
:101370000E94890A60E2CE010E940A096D816062C2
:10138000CE010E943C0984E08E83CE010E947A093E
:10139000CE010E943F0982E08F8366E0CE010E9469
:1013A0003C09CE01DF91CF910C944609CF93DF9396
:1013B000EC0189E093E00E94C9061D8220E04A8585
:1013C0006985CE01DF91CF910C9482090C94D609E6
:1013D0001F920F920FB60F9211242F933F938F936A
:1013E0009F93AF93BF938091CA039091CB03A09139
:1013F000CC03B091CD033091C90323E0230F2D37E7
:1014000020F40196A11DB11D05C026E8230F029608
:10141000A11DB11D2093C9038093CA039093CB03F0
:10142000A093CC03B093CD038091CE039091CF03D2
:10143000A091D003B091D1030196A11DB11D80935D
:10144000CE039093CF03A093D003B093D103BF9169
:10145000AF919F918F913F912F910F900FBE0F9061
:101460001F9018952FB7F8946091CA037091CB0321
:101470008091CC039091CD032FBF08953FB7F8948E
:101480008091CE039091CF03A091D003B091D1036E
:1014900026B5A89B05C02F3F19F00196A11DB11DCF
:1014A0003FBF6627782F892F9A2F620F711D811DEC
:1014B000911D42E0660F771F881F991F4A95D1F74B
:1014C0000895CF92DF92EF92FF92CF93DF936B015B
:1014D0007C010E943E0AEB01C114D104E104F10435
:1014E00089F00E94A60E0E943E0A6C1B7D0B683E8E
:1014F000734090F381E0C81AD108E108F108C8519F
:10150000DC4FEACFDF91CF91FF90EF90DF90CF904B
:1015100008958230910538F0880F991F880F991F20
:1015200005970197F1F70895789484B5826084BD9A
:1015300084B5816084BD85B5826085BD85B58160D7
:1015400085BDEEE6F0E0808181608083E1E8F0E037
:101550001082808182608083808181608083E0E866
:10156000F0E0808181608083E1EBF0E08081846045
:101570008083E0EBF0E0808181608083EAE7F0E047
:1015800080818460808380818260808380818160AB
:1015900080838081806880831092C10008958330A9
:1015A00081F028F4813099F08230A1F008958730DD
:1015B000A9F08830B9F08430D1F4809180008F7D1B
:1015C00003C0809180008F7780938000089584B558
:1015D0008F7702C084B58F7D84BD08958091B0005F
:1015E0008F7703C08091B0008F7D8093B000089505
:1015F000CF93DF9390E0FC01E056FF4F2491FC0174
:10160000EC54FF4F8491882349F190E0880F991F93
:10161000FC01E452FF4FA591B4918E529F4FFC0103
:10162000C591D4919FB7611108C0F8948C91209511
:1016300082238C93888182230AC0623051F4F8940B
:101640008C91322F309583238C938881822B8883D1
:1016500004C0F8948C91822B8C939FBFDF91CF9123
:1016600008950F931F93CF93DF931F92CDB7DEB7EB
:10167000282F30E0F901E457FF4F8491F901E0563B
:10168000FF4F1491F901EC54FF4F04910023C9F06E
:10169000882321F069830E94CF0A6981E02FF0E05E
:1016A000EE0FFF1FEE52FF4FA591B4919FB7F89434
:1016B0008C91611103C01095812301C0812B8C9303
:1016C0009FBF0F90DF91CF911F910F910895CF93FE
:1016D000DF93282F30E0F901E457FF4F8491F9019F
:1016E000E056FF4FD491F901EC54FF4FC491CC2345
:1016F00091F081110E94CF0AEC2FF0E0EE0FFF1F56
:10170000E853FF4FA591B4912C912D2381E090E0F7
:1017100021F480E002C080E090E0DF91CF91089555
:10172000FC01818D228D90E0805C9F4F821B91098E
:101730008F7399270895FC01918D828D981731F050
:10174000828DE80FF11D858D90E008958FEF9FEF5A
:101750000895FC01918D828D981761F0828DDF01D3
:10176000A80FB11D5D968C91928D9F5F9F73928F94
:1017700090E008958FEF9FEF08958DE29DE0892B13
:1017800049F080E090E0892B29F00E942D0D811115
:101790000C9400000895FC01848DDF01A80FB11D99
:1017A000A35ABF4F2C91848D90E001968F73992797
:1017B000848FA689B7892C93A089B1898C91806484
:1017C0008C93938D848D981306C00288F389E02D45
:1017D00080818F7D80830895CF93DF93EC01888D86
:1017E0008823C9F0EA89FB89808185FD05C0A88925
:1017F000B9898C9186FD0FC00FB607FCF5CF8081AB
:1018000085FFF2CFA889B9898C9185FFEDCFCE01F4
:101810000E94CB0BE7CFDF91CF910895CF92DF925B
:10182000FF920F931F93CF93DF931F92CDB7DEB735
:101830006C0181E0D60158968C9358975B969C91E9
:101840005B975C968C915C97981307C05096ED91CE
:10185000FC915197808185FD2EC0F601038D10E02B
:101860000F5F1F4F0F731127F02EF601848DF812B2
:1018700011C00FB607FCF9CFD6015096ED91FC913F
:101880005197808185FFF1CFC60169830E94CB0B00
:101890006981EBCF838DE80FF11DE35AFF4F608321
:1018A000D6015B960C935B975296ED91FC91539702
:1018B000808180620CC0D6015696ED91FC915797BD
:1018C00060835096ED91FC91519780818064808374
:1018D00081E090E00F90DF91CF911F910F91FF90E9
:1018E000DF90CF900895BF92CF92DF92EF92FF9258
:1018F000CF93DF93EC016A017B01B22EE889F9896D
:1019000082E08083411581EE580761057105A1F0E1
:1019100060E079E08DE390E0A70196010E94A70EB8
:101920002150310941095109569547953795279519
:10193000211580E1380798F0E889F989108260E87C
:1019400074E88EE190E0A70196010E94A70E215055
:101950003109410951095695479537952795EC85E9
:10196000FD853083EE85FF852083188EEC89FD8907
:10197000B082EA89FB89808180618083EA89FB8962
:10198000808188608083EA89FB8980818068808388
:10199000EA89FB8980818F7D8083DF91CF91FF90E1
:1019A000EF90DF90CF90BF9008951F920F920FB6E7
:1019B0000F9211242F938F939F93EF93FF93E091B6
:1019C000E203F091E3038081E091E803F091E90301
:1019D00082FD12C090818091EB038F5F8F73209105
:1019E000EC03821751F0E091EB03F0E0EE52FC4F74
:1019F000958F8093EB0301C08081FF91EF919F91C0
:101A00008F912F910F900FBE0F901F9018951F92DE
:101A10000F920FB60F9211242F933F934F935F9322
:101A20006F937F938F939F93AF93BF93EF93FF93A6
:101A300082ED93E00E94CB0BFF91EF91BF91AF91AC
:101A40009F918F917F916F915F914F913F912F91D6
:101A50000F900FBE0F901F90189582ED93E00E949B
:101A6000900B21E0892B09F420E0822F0895109239
:101A7000D5031092D40388EE93E0A0E0B0E0809309
:101A8000D6039093D703A093D803B093D9038EECD9
:101A900092E09093D3038093D20385EC90E09093EF
:101AA000DF038093DE0384EC90E09093E103809366
:101AB000E00380EC90E09093E3038093E20381ECF9
:101AC00090E09093E5038093E40382EC90E09093A0
:101AD000E7038093E60386EC90E09093E90380931C
:101AE000E8031092EB031092EC031092ED031092B6
:101AF000EE03089508950E94940A0E947A0D0E94B0
:101B0000CE02CDEBDBE00E9449052097E1F30E9475
:101B1000BD0BF9CFCF92DF92EF92FF920F931F93FD
:101B2000CF93DF936C017A01EB01E60EF71E00E024
:101B300010E0CE15DF0561F06991D601ED91FC91C1
:101B40000190F081E02DC6010995080F191FF1CF12
:101B5000C801DF91CF911F910F91FF90EF90DF901F
:101B6000CF9008956115710581F0DB010D90002083
:101B7000E9F7AD0141505109461B570BDC01ED91CE
:101B8000FC910280F381E02D099480E090E00895BB
:101B90000C94B20DDC01ED91FC910190F081E02DEF
:101BA00009946AED72E00C94B20D0F931F93CF93DA
:101BB000DF93EC010E94B20D8C01CE010E94D10D89
:101BC000800F911FDF91CF911F910F9108958F92F8
:101BD0009F92AF92BF92CF92DF92EF92FF920F93BC
:101BE0001F93CF93DF93CDB7DEB7A1970FB6F894CD
:101BF000DEBF0FBECDBF7C01C42EE52FCB01D22EA0
:101C000019A221E02D1510F02AE0D22E8E010F5DD1
:101C10001F4F8D2C912CA12CB12C6C2D7E2FA5014A
:101C200094010E94A70E8C2DD29E80191124015080
:101C300011098A3014F4805D01C0895CF801808349
:101C4000211531054105510521F0C22EE32FCA01AE
:101C5000E4CFB801C7010E94B20DA1960FB6F89467
:101C6000DEBF0FBECDBFDF91CF911F910F91FF90CF
:101C7000EF90DF90CF90BF90AF909F908F9008959E
:101C8000CF92DF92EF92FF920F931F93CF93DF9348
:101C9000EC016A017B012115310579F4E881F981B4
:101CA0000190F081E02D642FDF91CF911F910F9172
:101CB000FF90EF90DF90CF9009942A303105E9F43E
:101CC00077FF1AC06DE20E94CA0D8C014427552788
:101CD000BA014C195D096E097F092AE0CE010E9404
:101CE000E70D800F911FDF91CF911F910F91FF9012
:101CF000EF90DF90CF9008952AE0B701A601CE01C2
:101D0000DF91CF911F910F91FF90EF90DF90CF90D7
:101D10000C94E70D9A01AB01662757FD6095762F6D
:101D20000C94400E2115310541F4DC01ED91FC913C
:101D30000190F081E02D642F09940C94E70D9A0135
:101D4000462F50E060E070E00C94920E0895A1E2FE
:101D50001A2EAA1BBB1BFD010DC0AA1FBB1FEE1F25
:101D6000FF1FA217B307E407F50720F0A21BB30B70
:101D7000E40BF50B661F771F881F991F1A9469F7EC
:101D800060957095809590959B01AC01BD01CF0148
:101D90000895EE0FFF1F0590F491E02D09940E9425
:101DA000DA0EA59F900DB49F900DA49F800D911DFC
:101DB00011240895A29FB001B39FC001A39F700D8D
:101DC000811D1124911DB29F700D811D1124911D43
:101DD0000895F999FECF92BD81BDF89A992780B5F3
:101DE0000895262FF999FECF1FBA92BD81BD20BD5F
:101DF0000FB6F894FA9AF99A0FBE01960895F894DE
:021E0000FFCF12
:101E020060EA0000E8030000010A0204030403017F
:101E1200050004000300020001000100010D000C96
:101E2200000B000A000000400014005400537461CB
:101E3200743A200046555445532020200054415204
:101E4200544153202000467574617369646F3A20CF
:101E520000206D003E3E002D2D00467574657320F6
:101E620053544152542069646F2000543D20002095
:101E720073202020202020202020004675746573C6
:101E82002053544F502069646F202000207320207B
:101E920020202020202020200054757A7461727442
:101EA2006173205354415254200054757A74617204
:101EB2007461732053544F50202000207065726368
:101EC200202020202020004D6F746F7220746573D3
:101ED2007A742069646F200048617474657276694F
:101EE2006C6167697461732000457274656B3D2093
:101EF200004C657665676F206B65736C656C746505
:101F02007400207320494E41435449564520200015
:101F12004265616C6C2E206D656E746573202020A5
:101F220000202020202B2076616779202D20202080
:101F320020004B455A49204D6F746F723A2000556C
:101F42005A454D2056656E74693A2000204B617ADD
:101F5200616E2076657A65726C6F2000205665721C
:101F62003A2031352E31322E3235202000202020E9
:101F72004D4F544F52205445535A54202000202094
:101F820020205445535A54204F4B202020200050EB
:101F9200726F6772616D20696E64756C2E2E0020FF
:101FA2002020202B2076616779202D20204F4B00A6
:101FB2002A00000000008A065D0632063A064D0637
:101FC2005C060000000036098A0D000000000E0CBD
:101FD2008A0D900BA90B9B0BEC0B0D0A006E616E28
:0A1FE20000696E66006F766600006D
:00000001FF
